{
  "_format": "hh-sol-artifact-1",
  "contractName": "AvonDAO",
  "sourceName": "contracts/AvonDAO.sol",
  "abi": [
    {
      "inputs": [],
      "stateMutability": "nonpayable",
      "type": "constructor"
    },
    {
      "inputs": [],
      "name": "AvonTokenAddress",
      "outputs": [
        {
          "internalType": "address",
          "name": "",
          "type": "address"
        }
      ],
      "stateMutability": "view",
      "type": "function"
    },
    {
      "inputs": [],
      "name": "AvonTokenMockAddrss",
      "outputs": [
        {
          "internalType": "address",
          "name": "",
          "type": "address"
        }
      ],
      "stateMutability": "view",
      "type": "function"
    },
    {
      "inputs": [
        {
          "internalType": "uint256",
          "name": "",
          "type": "uint256"
        }
      ],
      "name": "Preposals",
      "outputs": [
        {
          "internalType": "address",
          "name": "_creator",
          "type": "address"
        },
        {
          "internalType": "string",
          "name": "preposal",
          "type": "string"
        },
        {
          "internalType": "uint256",
          "name": "date_expires",
          "type": "uint256"
        },
        {
          "internalType": "uint256",
          "name": "yes",
          "type": "uint256"
        },
        {
          "internalType": "uint256",
          "name": "no",
          "type": "uint256"
        },
        {
          "internalType": "uint256",
          "name": "total",
          "type": "uint256"
        },
        {
          "internalType": "bool",
          "name": "descion",
          "type": "bool"
        },
        {
          "internalType": "bool",
          "name": "created",
          "type": "bool"
        },
        {
          "internalType": "bool",
          "name": "completed",
          "type": "bool"
        }
      ],
      "stateMutability": "view",
      "type": "function"
    },
    {
      "inputs": [
        {
          "internalType": "uint256",
          "name": "",
          "type": "uint256"
        },
        {
          "internalType": "address",
          "name": "",
          "type": "address"
        }
      ],
      "name": "VotingInfo",
      "outputs": [
        {
          "internalType": "bool",
          "name": "yes",
          "type": "bool"
        },
        {
          "internalType": "bool",
          "name": "no",
          "type": "bool"
        },
        {
          "internalType": "bool",
          "name": "voted",
          "type": "bool"
        }
      ],
      "stateMutability": "view",
      "type": "function"
    },
    {
      "inputs": [
        {
          "internalType": "string",
          "name": "_preposal",
          "type": "string"
        },
        {
          "internalType": "uint256",
          "name": "_id",
          "type": "uint256"
        }
      ],
      "name": "createPreposal",
      "outputs": [
        {
          "internalType": "bool",
          "name": "",
          "type": "bool"
        }
      ],
      "stateMutability": "nonpayable",
      "type": "function"
    },
    {
      "inputs": [
        {
          "internalType": "uint256",
          "name": "_id",
          "type": "uint256"
        }
      ],
      "name": "submitPreposal",
      "outputs": [
        {
          "internalType": "bool",
          "name": "",
          "type": "bool"
        }
      ],
      "stateMutability": "nonpayable",
      "type": "function"
    },
    {
      "inputs": [
        {
          "internalType": "uint256",
          "name": "_id",
          "type": "uint256"
        },
        {
          "internalType": "bool",
          "name": "_vote",
          "type": "bool"
        }
      ],
      "name": "voteOnProposal",
      "outputs": [
        {
          "internalType": "bool",
          "name": "",
          "type": "bool"
        }
      ],
      "stateMutability": "nonpayable",
      "type": "function"
    }
  ],
  "bytecode": "0x6080604052737e992d8f57223661106c29e519e22a2a9a7bcefb6000806101000a81548173ffffffffffffffffffffffffffffffffffffffff021916908373ffffffffffffffffffffffffffffffffffffffff16021790555073f37778ff2be5819efee99a0eb7862515b43ed03f600160006101000a81548173ffffffffffffffffffffffffffffffffffffffff021916908373ffffffffffffffffffffffffffffffffffffffff1602179055503480156100b957600080fd5b50611640806100c96000396000f3fe608060405234801561001057600080fd5b506004361061007d5760003560e01c806354ba8d6a1161005b57806354ba8d6a146101025780636e720ce11461013257806378183deb14610162578063cbf2ae261461019a5761007d565b80631614665c146100825780632127b772146100b257806331a39f88146100e4575b600080fd5b61009c60048036038101906100979190610ef5565b6101b8565b6040516100a99190611246565b60405180910390f35b6100cc60048036038101906100c79190610eb9565b610751565b6040516100db93929190611261565b60405180910390f35b6100ec6107af565b6040516100f99190611197565b60405180910390f35b61011c60048036038101906101179190610e67565b6107d3565b6040516101299190611246565b60405180910390f35b61014c60048036038101906101479190610e13565b6108fe565b6040516101599190611246565b60405180910390f35b61017c60048036038101906101779190610e67565b610b71565b604051610191999897969594939291906111b2565b60405180910390f35b6101a2610c8e565b6040516101af9190611197565b60405180910390f35b60004260026000858152602001908152602001600020600201541015610213576040517f08c379a000000000000000000000000000000000000000000000000000000000815260040161020a906112d8565b60405180910390fd5b6000600160009054906101000a900473ffffffffffffffffffffffffffffffffffffffff1673ffffffffffffffffffffffffffffffffffffffff166370a08231336040518263ffffffff1660e01b81526004016102709190611197565b60206040518083038186803b15801561028857600080fd5b505afa15801561029c573d6000803e3d6000fd5b505050506040513d601f19601f820116820180604052508101906102c09190610e90565b11610300576040517f08c379a00000000000000000000000000000000000000000000000000000000081526004016102f790611318565b60405180910390fd5b600115156002600085815260200190815260200160002060060160019054906101000a900460ff1615151461036a576040517f08c379a000000000000000000000000000000000000000000000000000000000815260040161036190611298565b60405180910390fd5b600015156002600085815260200190815260200160002060060160029054906101000a900460ff161515146103d4576040517f08c379a00000000000000000000000000000000000000000000000000000000081526004016103cb906112b8565b60405180910390fd5b60016003600085815260200190815260200160002060003373ffffffffffffffffffffffffffffffffffffffff1673ffffffffffffffffffffffffffffffffffffffff16815260200190815260200160002060000160026101000a81548160ff021916908315150217905561047e576040517f08c379a000000000000000000000000000000000000000000000000000000000815260040161047590611378565b60405180910390fd5b6000600160009054906101000a900473ffffffffffffffffffffffffffffffffffffffff1673ffffffffffffffffffffffffffffffffffffffff166370a08231336040518263ffffffff1660e01b81526004016104db9190611197565b60206040518083038186803b1580156104f357600080fd5b505afa158015610507573d6000803e3d6000fd5b505050506040513d601f19601f8201168201806040525081019061052b9190610e90565b905060011515831515141561060557806002600086815260200190815260200160002060030160008282546105609190611415565b925050819055508060026000868152602001908152602001600020600501600082825461058d9190611415565b9250508190555060016003600086815260200190815260200160002060003373ffffffffffffffffffffffffffffffffffffffff1673ffffffffffffffffffffffffffffffffffffffff16815260200190815260200160002060000160006101000a81548160ff0219169083151502179055506106da565b6000151583151514156106d957806002600086815260200190815260200160002060040160008282546106389190611415565b92505081905550806002600086815260200190815260200160002060050160008282546106659190611415565b9250508190555060016003600086815260200190815260200160002060003373ffffffffffffffffffffffffffffffffffffffff1673ffffffffffffffffffffffffffffffffffffffff16815260200190815260200160002060000160016101000a81548160ff0219169083151502179055505b5b60016003600086815260200190815260200160002060003373ffffffffffffffffffffffffffffffffffffffff1673ffffffffffffffffffffffffffffffffffffffff16815260200190815260200160002060000160026101000a81548160ff021916908315150217905550600191505092915050565b6003602052816000526040600020602052806000526040600020600091509150508060000160009054906101000a900460ff16908060000160019054906101000a900460ff16908060000160029054906101000a900460ff16905083565b60008054906101000a900473ffffffffffffffffffffffffffffffffffffffff1681565b6000426002600084815260200190815260200160002060020154111561082e576040517f08c379a000000000000000000000000000000000000000000000000000000000815260040161082590611358565b60405180910390fd5b6002600083815260200190815260200160002060040154600260008481526020019081526020016000206003015411156108965760016002600084815260200190815260200160002060060160006101000a81548160ff0219169083151502179055506108c6565b60006002600084815260200190815260200160002060060160006101000a81548160ff0219169083151502179055505b60016002600084815260200190815260200160002060060160026101000a81548160ff02191690831515021790555060019050919050565b6000691fc3842bd1f071c00000600160009054906101000a900473ffffffffffffffffffffffffffffffffffffffff1673ffffffffffffffffffffffffffffffffffffffff166370a08231336040518263ffffffff1660e01b81526004016109669190611197565b60206040518083038186803b15801561097e57600080fd5b505afa158015610992573d6000803e3d6000fd5b505050506040513d601f19601f820116820180604052508101906109b69190610e90565b116109f6576040517f08c379a00000000000000000000000000000000000000000000000000000000081526004016109ed906112f8565b60405180910390fd5b600015156002600084815260200190815260200160002060060160019054906101000a900460ff16151514610a60576040517f08c379a0000000000000000000000000000000000000000000000000000000008152600401610a5790611338565b60405180910390fd5b336002600084815260200190815260200160002060000160006101000a81548173ffffffffffffffffffffffffffffffffffffffff021916908373ffffffffffffffffffffffffffffffffffffffff16021790555082600260008481526020019081526020016000206001019080519060200190610adf929190610cb4565b5060016002600084815260200190815260200160002060060160016101000a81548160ff02191690831515021790555060006002600084815260200190815260200160002060060160026101000a81548160ff0219169083151502179055506201518042610b4d9190611415565b60026000848152602001908152602001600020600201819055506001905092915050565b60026020528060005260406000206000915090508060000160009054906101000a900473ffffffffffffffffffffffffffffffffffffffff1690806001018054610bba906114f5565b80601f0160208091040260200160405190810160405280929190818152602001828054610be6906114f5565b8015610c335780601f10610c0857610100808354040283529160200191610c33565b820191906000526020600020905b815481529060010190602001808311610c1657829003601f168201915b5050505050908060020154908060030154908060040154908060050154908060060160009054906101000a900460ff16908060060160019054906101000a900460ff16908060060160029054906101000a900460ff16905089565b600160009054906101000a900473ffffffffffffffffffffffffffffffffffffffff1681565b828054610cc0906114f5565b90600052602060002090601f016020900481019282610ce25760008555610d29565b82601f10610cfb57805160ff1916838001178555610d29565b82800160010185558215610d29579182015b82811115610d28578251825591602001919060010190610d0d565b5b509050610d369190610d3a565b5090565b5b80821115610d53576000816000905550600101610d3b565b5090565b6000610d6a610d65846113c9565b611398565b905082815260208101848484011115610d8257600080fd5b610d8d8482856114b3565b509392505050565b600081359050610da4816115c5565b92915050565b600081359050610db9816115dc565b92915050565b600082601f830112610dd057600080fd5b8135610de0848260208601610d57565b91505092915050565b600081359050610df8816115f3565b92915050565b600081519050610e0d816115f3565b92915050565b60008060408385031215610e2657600080fd5b600083013567ffffffffffffffff811115610e4057600080fd5b610e4c85828601610dbf565b9250506020610e5d85828601610de9565b9150509250929050565b600060208284031215610e7957600080fd5b6000610e8784828501610de9565b91505092915050565b600060208284031215610ea257600080fd5b6000610eb084828501610dfe565b91505092915050565b60008060408385031215610ecc57600080fd5b6000610eda85828601610de9565b9250506020610eeb85828601610d95565b9150509250929050565b60008060408385031215610f0857600080fd5b6000610f1685828601610de9565b9250506020610f2785828601610daa565b9150509250929050565b610f3a8161146b565b82525050565b610f498161147d565b82525050565b6000610f5a826113f9565b610f648185611404565b9350610f748185602086016114c2565b610f7d816115b4565b840191505092915050565b6000610f95601383611404565b91507f496e7661696c6420507265706f73616c204964000000000000000000000000006000830152602082019050919050565b6000610fd5601583611404565b91507f507265706f73616c20697320636f6d706c6574656400000000000000000000006000830152602082019050919050565b6000611015601483611404565b91507f4e6f2074696d65206c65667420746f20766f74650000000000000000000000006000830152602082019050919050565b6000611055601f83611404565b91507f53656e64657220446f6573206e6f7420656e6f756768204861766520415421006000830152602082019050919050565b6000611095601883611404565b91507f53656e64657220446f6573206e6f7420486176652041542100000000000000006000830152602082019050919050565b60006110d5601983611404565b91507f507265706f73616c20494420616c72656164792074616b656e000000000000006000830152602082019050919050565b6000611115601283611404565b91507f5374696c6c2074696d6520746f20766f746500000000000000000000000000006000830152602082019050919050565b6000611155601883611404565b91507f416464726573732068617320616c7265616420766f74656400000000000000006000830152602082019050919050565b611191816114a9565b82525050565b60006020820190506111ac6000830184610f31565b92915050565b6000610120820190506111c8600083018c610f31565b81810360208301526111da818b610f4f565b90506111e9604083018a611188565b6111f66060830189611188565b6112036080830188611188565b61121060a0830187611188565b61121d60c0830186610f40565b61122a60e0830185610f40565b611238610100830184610f40565b9a9950505050505050505050565b600060208201905061125b6000830184610f40565b92915050565b60006060820190506112766000830186610f40565b6112836020830185610f40565b6112906040830184610f40565b949350505050565b600060208201905081810360008301526112b181610f88565b9050919050565b600060208201905081810360008301526112d181610fc8565b9050919050565b600060208201905081810360008301526112f181611008565b9050919050565b6000602082019050818103600083015261131181611048565b9050919050565b6000602082019050818103600083015261133181611088565b9050919050565b60006020820190508181036000830152611351816110c8565b9050919050565b6000602082019050818103600083015261137181611108565b9050919050565b6000602082019050818103600083015261139181611148565b9050919050565b6000604051905081810181811067ffffffffffffffff821117156113bf576113be611585565b5b8060405250919050565b600067ffffffffffffffff8211156113e4576113e3611585565b5b601f19601f8301169050602081019050919050565b600081519050919050565b600082825260208201905092915050565b6000611420826114a9565b915061142b836114a9565b9250827fffffffffffffffffffffffffffffffffffffffffffffffffffffffffffffffff038211156114605761145f611527565b5b828201905092915050565b600061147682611489565b9050919050565b60008115159050919050565b600073ffffffffffffffffffffffffffffffffffffffff82169050919050565b6000819050919050565b82818337600083830152505050565b60005b838110156114e05780820151818401526020810190506114c5565b838111156114ef576000848401525b50505050565b6000600282049050600182168061150d57607f821691505b6020821081141561152157611520611556565b5b50919050565b7f4e487b7100000000000000000000000000000000000000000000000000000000600052601160045260246000fd5b7f4e487b7100000000000000000000000000000000000000000000000000000000600052602260045260246000fd5b7f4e487b7100000000000000000000000000000000000000000000000000000000600052604160045260246000fd5b6000601f19601f8301169050919050565b6115ce8161146b565b81146115d957600080fd5b50565b6115e58161147d565b81146115f057600080fd5b50565b6115fc816114a9565b811461160757600080fd5b5056fea264697066735822122065b9f1183b1ac6234d37cc117756d18115619c481d1524602bf7c07fb04f186b64736f6c63430008000033",
  "linkReferences": {},
  "deployedLinkReferences": {}
}